:020000040800F2
:10400000FFFF01208953010815DA000817DA0008BC
:1040100045DB00085DDB000875DB000800000000E0
:10402000000000000000000000000000B1F60208DF
:104030008DDB00080000000051F7020805DA0008D7
:1040400009540108095401080954010809540108D8
:10405000095401080954010841B2000861B200087E
:1040600081B20008A1B20008C5B20008A9C30008C7
:1040700009540108CDC30008095401080954010876
:10408000CD010108C1E600080954010809540108DE
:10409000095401080954010809540108EDB2000847
:1040A0000954010809540108095401080954010878
:1040B0000954010809540108095401089DC3000866
:1040C00091C3000809540108095401080954010862
:1040D000095401080954010821E7000825E30008F4
:1040E000C9B300080954010809540108095401081A
:1040F00009540108BDAF000809540108095401081A
:104100000954010809540108095401080954010817
:104110000954010809540108095401082D530108E4
:10412000DD56000809540108095401080954010822
:1041300009540108095401080954010809540108E7
:1041400009540108095401080954010809DA000852
:10415000755600080954010899ED000895ED00080E
:10416000C1C30008B5C30008095401080954010877
:1041700009540108095401080954010809540108A7
:0841800009540108095401086B
:1041900081F0004102E000BF83F0004330B54FEAF8
:1041A00041044FEA430594EA050F08BF90EA020F65
:1041B0001FBF54EA000C55EA020C7FEA645C7FEAF8
:1041C000655C00F0E2804FEA5454D4EB5555B8BF1B
:1041D0006D420CDD2C4480EA020281EA030382EA8C
:1041E000000083EA010180EA020281EA0303362D1E
:1041F00088BF30BD11F0004F4FEA01314FF4801CF1
:104200004CEA113102D0404261EB410113F0004F02
:104210004FEA03334CEA133302D0524263EB4303B9
:1042200094EA050F00F0A780A4F10104D5F1200E57
:104230000DDB02FA0EFC22FA05F2801841F10001B2
:1042400003FA0EF2801843FA05F359410EE0A5F186
:1042500020050EF1200E012A03FA0EFC28BF4CF0B7
:10426000020C43FA05F3C01851EBE37101F000456D
:1042700007D54FF0000EDCF1000C7EEB00006EEB7A
:104280000101B1F5801F1BD3B1F5001F0CD3490804
:104290005FEA30004FEA3C0C04F101044FEA44525B
:1042A00012F5800F80F09A80BCF1004F08BF5FEAE2
:1042B000500C50F1000041EB045141EA050130BDC2
:1042C0005FEA4C0C404141EB0101013C28BFB1F5D4
:1042D000801FE9D291F0000F04BF01460020B1FA1F
:1042E00081F308BF2033A3F10B03B3F120020CDAF2
:1042F0000C3208DD02F1140CC2F10C0201FA0CF0D0
:1043000021FA02F10CE002F11402D8BFC2F1200C34
:1043100001FA02F120FA0CFCDCBF41EA0C019040EA
:10432000E41AA2BF01EB0451294330BD6FEA040433
:104330001F3C1CDA0C340EDC04F11404C4F120021E
:1043400020FA04F001FA02F340EA030021FA04F330
:1043500045EA030130BDC4F10C04C4F1200220FA87
:1043600002F001FA04F340EA0300294630BD21FAC5
:1043700004F0294630BD94F0000F83F4801306BF8B
:1043800081F480110134013D4EE77FEA645C18BF7F
:104390007FEA655C29D094EA050F08BF90EA020F16
:1043A00005D054EA000C04BF1946104630BD91EA0E
:1043B000030F1EBF0021002030BD5FEA545C05D111
:1043C0004000494128BF41F0004130BD14F5800450
:1043D0003CBF01F5801130BD01F0004545F0FE41C4
:1043E00041F470014FF0000030BD7FEA645C1ABFF9
:1043F000194610467FEA655C1CBF0B46024650EA30
:10440000013406BF52EA033591EA030F41F400215B
:1044100030BD00BF90F0000F04BF0021704730B5E1
:104420004FF4806404F132044FF000054FF00001B6
:1044300050E700BF90F0000F04BF0021704730B577
:104440004FF4806404F1320410F0004548BF40424C
:104450004FF000013EE700BF42004FEAE2014FEAA1
:1044600031014FEA02701FBF12F07F4393F07F4F7C
:1044700081F06051704732F07F4208BF704793F07F
:104480007F4F04BF41F40021704730B54FF4607492
:1044900001F0004521F000411CE700BF50EA010295
:1044A00008BF704730B54FF000050AE050EA01023E
:1044B00008BF704730B511F0004502D5404261EBAE
:1044C00041014FF4806404F132045FEA915C3FF4EF
:1044D000D8AE4FF003025FEADC0C18BF03325FEA8C
:1044E000DC0C18BF033202EBDC02C2F1200300FA3D
:1044F00003FC20FA02F001FA03FE40EA0E0021FA62
:1045000002F11444BDE600BF70B54FF0FF0C4CF44F
:10451000E06C1CEA11541DBF1CEA135594EA0C0F01
:1045200095EA0C0F00F0DEF82C4481EA030621EA3C
:104530004C5123EA4C5350EA013518BF52EA033577
:1045400041F4801143F4801338D0A0FB02CE4FF029
:104550000005E1FB02E506F00042E0FB03E54FF059
:104560000006E1FB03569CF0000F18BF4EF0010E51
:10457000A4F1FF04B6F5007F64F5407404D25FEA4D
:104580004E0E6D4146EB060642EAC62141EA555100
:104590004FEAC52040EA5E504FEACE2EB4F1FD0C42
:1045A00088BFBCF5E06F1ED8BEF1004F08BF5FEAC0
:1045B000500E50F1000041EB045170BD06F0004672
:1045C00046EA010140EA020081EA0301B4EB5C041F
:1045D000C2BFD4EB0C0541EA045170BD41F4801117
:1045E0004FF0000E013C00F3AB8014F1360FDEBF3C
:1045F000002001F0004170BDC4F10004203C35DA18
:104600000C341BDC04F11404C4F1200500FA05F39A
:1046100020FA04F001FA05F240EA020001F000423B
:1046200021F0004110EBD37021FA04F642EB0601B1
:104630005EEA430E08BF20EAD37070BDC4F10C04DB
:10464000C4F1200500FA04F320FA05F001FA04F29F
:1046500040EA020001F0004110EBD37041F100018B
:104660005EEA430E08BF20EAD37070BDC4F1200596
:1046700000FA05F24EEA020E20FA04F301FA05F2FE
:1046800043EA020321FA04F001F0004121FA04F2A6
:1046900020EA020000EBD3705EEA430E08BF20EA76
:1046A000D37070BD94F0000F0FD101F000464000B0
:1046B00041EB010111F4801F08BF013CF7D041EA32
:1046C000060195F0000F18BF704703F00046520036
:1046D00043EB030313F4801F08BF013DF7D043EA07
:1046E0000603704794EA0C0F0CEA135518BF95EABD
:1046F0000C0F0CD050EA410618BF52EA4306D1D144
:1047000081EA030101F000414FF0000070BD50EA62
:10471000410606BF1046194652EA430619D094EAEC
:104720000C0F02D150EA013613D195EA0C0F05D1D6
:1047300052EA03361CBF104619460AD181EA03012A
:1047400001F0004141F0FE4141F470014FF00000E2
:1047500070BD41F0FE4141F4780170BD70B54FF07D
:10476000FF0C4CF4E06C1CEA11541DBF1CEA1355FD
:1047700094EA0C0F95EA0C0F00F0A7F8A4EB0504DF
:1047800081EA030E52EA03354FEA013100F08880D6
:104790004FEA03334FF0805545EA131343EA12639F
:1047A0004FEA022245EA111545EA10654FEA002654
:1047B0000EF000419D4208BF964244F1FD0404F50D
:1047C000407402D25B084FEA3202B61A65EB030569
:1047D0005B084FEA32024FF480104FF4002CB6EB26
:1047E000020E75EB030E22BFB61A754640EA0C00A6
:1047F0005B084FEA3202B6EB020E75EB030E22BFE6
:10480000B61A754640EA5C005B084FEA3202B6EB26
:10481000020E75EB030E22BFB61A754640EA9C00E5
:104820005B084FEA3202B6EB020E75EB030E22BFB5
:10483000B61A754640EADC0055EA060E18D04FEA73
:10484000051545EA16754FEA06164FEAC30343EA13
:1048500052734FEAC2025FEA1C1CC0D111F4801FE0
:104860000BD141EA00014FF000004FF0004CB6E7D9
:1048700011F4801F04BF01430020B4F1FD0C88BF78
:10488000BCF5E06F3FF6AFAEB5EB030C04BFB6EB83
:10489000020C5FEA500C50F1000041EB045170BD76
:1048A0000EF0004E4EEA113114EB5C04C2BFD4EBA3
:1048B0000C0541EA045170BD41F480114FF0000E27
:1048C000013C90E645EA060E8DE60CEA135594EAA3
:1048D0000C0F08BF95EA0C0F3FF43BAF94EA0C0FA6
:1048E0000AD150EA01347FF434AF95EA0C0F7FF41B
:1048F00025AF104619462CE795EA0C0F06D152EA6F
:1049000003353FF4FDAE1046194622E750EA410652
:1049100018BF52EA43067FF4C5AE50EA41047FF463
:104920000DAF52EA43057FF4EBAE12E74FF0FF3CC8
:1049300006E000BF4FF0010C02E000BF4FF0010C99
:104940004DF804CD4FEA410C7FEA6C5C4FEA430C12
:1049500018BF7FEA6C5C1BD001B050EA410C0CBF61
:1049600052EA430C91EA030F02BF90EA020F0020C3
:10497000704710F1000F91EA030F58BF994208BF2A
:1049800090422CBFD8176FEAE37040F001007047E7
:104990004FEA410C7FEA6C5C02D150EA013C07D13E
:1049A0004FEA430C7FEA6C5CD6D152EA033CD3D089
:1049B0005DF8040B704700BF8446104662468C4683
:1049C0001946634600E000BF01B5FFF7B7FF0028B6
:1049D00048BF10F1000F01BD4DF808EDFFF7F4FFDF
:1049E0000CBF012000205DF808FB00BF4DF808ED6A
:1049F000FFF7EAFF34BF012000205DF808FB00BF8D
:104A00004DF808EDFFF7E0FF94BF012000205DF8AE
:104A100008FB00BF4DF808EDFFF7CEFF94BF012063
:104A200000205DF808FB00BF4DF808EDFFF7C4FF5C
:104A300034BF012000205DF808FB00BF4A0011D2FE
:104A400012F5001211D20DD56FF47873B3EB6252E8
:104A50000ED44FEAC12343F0004343EA505323FAF4
:104A600002F070474FF00000704750EA013002D169
:104A70004FF0FF3070474FF0000070474FEA41029F
:104A8000B2F1E04324BFB3F5001CDCF1FE5C0DD9AC
:104A900001F0004C4FEAC0024CEA5070B2F1004FF6
:104AA00040EB830008BF20F00100704711F0804FF9
:104AB00021D113F13872BCBF01F00040704741F4BE
:104AC00080114FEA5252C2F11802C2F1200C10FAC2
:104AD0000CF320FA02F018BF40F001004FEAC123A6
:104AE0004FEAD32303FA0CFC40EA0C0023FA02F34A
:104AF0004FEA4303CCE77FEA625307D150EA013320
:104B00001EBF4FF0FE4040F44000704701F00040EF
:104B100040F0FE4040F40000704700BF80F00040CD
:104B200002E000BF81F0004142001FBF5FEA410385
:104B300092EA030F7FEA226C7FEA236C6AD04FEA85
:104B40001262D2EB1363C1BFD218414048404140CA
:104B5000B8BF5B42192B88BF704710F0004F40F47C
:104B6000000020F07F4018BF404211F0004F41F498
:104B7000000121F07F4118BF494292EA030F3FD064
:104B8000A2F1010241FA03FC10EB0C00C3F1200377
:104B900001FA03F100F0004302D5494260EB400006
:104BA000B0F5000F13D3B0F1807F06D340084FEA71
:104BB000310102F10102FE2A51D2B1F1004F40EB66
:104BC000C25008BF20F0010040EA030070474900CE
:104BD00040EB0000013A28BFB0F5000FEDD2B0FA6B
:104BE00080FCACF1080CB2EB0C0200FA0CF0AABF8E
:104BF00000EBC25052421843BCBFD040184370472C
:104C000092F0000F81F4000106BF80F40000013231
:104C1000013BB5E74FEA41037FEA226C18BF7FEA08
:104C2000236C21D092EA030F04D092F0000F08BF4A
:104C30000846704790EA010F1CBF0020704712F031
:104C40007F4F04D1400028BF40F00040704712F170
:104C500000723CBF00F50000704700F0004343F0D5
:104C6000FE4040F4000070477FEA226216BF08460B
:104C70007FEA23630146420206BF5FEA412390EACE
:104C8000010F40F4800070474FF0000304E000BFC4
:104C900010F0004348BF40425FEA000C08BF704775
:104CA00043F0964301464FF000001CE050EA010239
:104CB00008BF70474FF000030AE000BF50EA01024E
:104CC00008BF704711F0004302D5404261EB41013B
:104CD0005FEA010C02BF84460146002043F0B64360
:104CE00008BFA3F18053A3F50003BCFA8CF2083A85
:104CF000A3EBC25310DB01FA02FC634400FA02FC8E
:104D0000C2F12002BCF1004F20FA02F243EB020094
:104D100008BF20F00100704702F1200201FA02FCF6
:104D2000C2F1200250EA4C0021FA02F243EB0200E9
:104D300008BF20EADC70704753B94AB9002908BFA0
:104D400000281CBF4FF0FF314FF0FF3000F0ECB9EE
:104D5000ADF1080C6DE904CE00F084F8DDF804E054
:104D6000DDE9022304B07047430803F05533C01A4D
:104D7000830803F0333300F03330184400EB101095
:104D800000F00F3000EB002000EB0040000E7047F9
:104D900007EE900AF5EEC07AF1EE10FA01D400F0B9
:104DA00023B8F1EE677A08B517EE900A00F01CF808
:104DB000404261EB410108BD38B5002200230446A2
:104DC0000D46FFF713FE28B920462946BDE83840B6
:104DD00000F02AB8204605F1004100F025F84042D5
:104DE00061EB410138BD00BFD0B5FFF735FB0C4B7F
:104DF000002206460F46FFF787FBFFF71FFE04461B
:104E0000FFF708FB074B0022FFF77EFB02460B462D
:104E100030463946FFF7C0F9FFF710FE2146D0BDF6
:104E20000000F03D0000F041D0B50C4B00220646DA
:104E30000F46FFF769FBFFF701FE0446FFF7EAFAAA
:104E4000074B0022FFF760FB02460B46304639460F
:104E5000FFF7A2F9FFF7F2FD2146D0BD0000F03DBB
:104E60000000F0412DE9F047089D04468C46002BD8
:104E700040F083808A42174647D9B2FA82F242B1A3
:104E8000C2F1200024FA00F09140974040EA010C62
:104E900094404FEA1748230CBCFBF8F61FFA87FE34
:104EA00008FB16C143EA014306FB0EF1994209D9FA
:104EB000FB1806F1FF3080F01981994240F216810B
:104EC000023E3B445B1AA4B2B3FBF8F008FB10337C
:104ED00044EA034400FB0EFEA64509D93C1900F143
:104EE000FF3380F00581A64540F2028102383C4440
:104EF00040EA0640A4EB0E0400261DB1D440002376
:104F0000C5E900433146BDE8F08702B9FFDEB2FAD9
:104F100082F2002A50D1CB1B4FEA174E1FFA87F8B6
:104F20000126B3FBFEFC210C0EFB1C3341EA0341BE
:104F300008FB0CF38B4207D979180CF1FF3002D231
:104F40008B4200F2E9808446C91AA3B2B1FBFEF09D
:104F50000EFB101143EA014408FB00F8A04507D9F5
:104F60003C1900F1FF3302D2A04500F2D980184667
:104F7000A4EB080440EA0C40BFE78B4209D9002D9E
:104F800000F0B1800026C5E9000130463146BDE899
:104F9000F087B3FA83F6002E4AD18B4202D38242C5
:104FA00000F2B880841A61EB030101208C46002DC9
:104FB000A8D0C5E9004CA5E7C2F1200320FA03F60A
:104FC000974001FA02F04FEA174ED9403043030CE4
:104FD000B1FBFEF61FFA87F80EFB161143EA0143F8
:104FE00006FB08F1994204FA02F409D9FB1806F10C
:104FF000FF3C80F08D80994240F28A80023E3B4423
:105000005B1A81B2B3FBFEF00EFB103341EA0341A1
:1050100000FB08F38B4207D9791800F1FF3C73D2EB
:105020008B4271D902383944CB1A40EA064678E7F8
:10503000C6F1200C03FA06F422FA0CF31C4320FA02
:105040000CF701FA06F34FEA144E21FA0CF11F4354
:105050003B0CB1FBFEF91FFA84F80EFB191143EA71
:10506000014109FB08FA8A4502FA06F200FA06F342
:1050700008D9611809F1FF3048D28A4546D9A9F10B
:1050800002092144A1EB0A01BFB2B1FBFEF00EFB05
:10509000101147EA014700FB08F8B84507D9E7199E
:1050A00000F1FF312ED2B8452CD90238274440EA0E
:1050B0000940A7EB0807A0FB02894F45C6464946B1
:1050C0001AD317D05DB1B3EB0E0267EB010707FAF5
:1050D0000CFCF2404CEA0202F740C5E9002700262A
:1050E0003146BDE8F0872E4628460BE70646E9E63E
:1050F0001846FDE64345E5D2B8EB020E69EB040124
:105100000138DFE70846D2E760468DE78146B9E718
:10511000664675E730464AE7ACF1020C394413E7BE
:1051200002383C4424E700BF704700BF10F8012B51
:1051300011F8013B012A28BF9A42F7D0D01A7047D4
:10514000034613F8012B002AFBD1181A01387047C7
:1051500001F0FF01102A2BDB10F0070F08D010F828
:10516000013B013A8B422DD010F0070F42B3F6D12C
:10517000F0B441EA012141EA014122F007047FF045
:1051800000070023F0E80256083C85EA010586EA9C
:10519000010685FA47F5A3FA87F586FA47F6A5FAD8
:1051A00087F68EB9EED1F0BC01F0FF0102F00702E4
:1051B00032B110F8013B013A83EA010313B1F8D18F
:1051C0000020704701387047002D06BF3546033870
:1051D000073815F0010F07D1013015F4807F02BFA9
:1051E000013015F4C03F0130F0BC0138704700BFFA
:1051F00013B5C3B20C20154A584314180121105896
:1052000012F03EFB684612F07FF92389009340F2CA
:1052100003136068ADF80430694600238DF8073049
:1052200012F030F901230A48A17A1A4611F035FF2D
:10523000074811F070FF0648022111F074FF0028A2
:10524000F9D0034811F06CFF02B010BD549503086B
:10525000002101407FB5144A0123834008281360D0
:10526000124B1AD00A2815D0062819D000221A602D
:105270001B6800930023CDE90233ADF8043004939A
:105280000B48012369468DF8143011F0B3FE07B0C6
:105290005DF804FB4FF08072E9E74FF00072E6E73B
:1052A0004FF04072E3E700BF401B0020441B00208A
:1052B0000021014000B58BB011F08EFE04A811F062
:1052C000BFFE684611F0DAFE01214FF4007012F0C3
:1052D000FBFA00236846CDE90033CDE9023311F033
:1052E000B9FE0C20FFF7B6FF0348012111F0CCFEF8
:1052F0000BB05DF804FB00BF0021014038B5FFF79B
:1053000077FFFFF797F80022094BFFF7FDF8094BED
:10531000044618680D46FFF77DF802460B46204606
:105320002946FFF71BFAFFF7A9FB00EE100A38BD6C
:1053300000000840401B0020F7B50C23164DC4B2F6
:105340006343EF18E8580E46012112F099FA3A89A2
:1053500000920023012E0CBF01221A46ADF8063040
:105360008DF804200DD18DF806300C2000FB04557B
:10537000012368688DF80530694612F083F803B0A0
:10538000F0BD022E03D0032EEFD1022300E0012353
:105390008DF80730E9E700BF54950308054B0C2250
:1053A000C0B202FB00300A1E18BF0122018940680A
:1053B00012F0BAB85495030808B5064B0C22C0B2D7
:1053C00002FB00300189406812F0A4F8431E5842E5
:1053D000584108BD5495030810B5044686B01048DE
:1053E00012F0B2FA4FF482720023ADF808200C4894
:1053F000ADF806304FF400720DF10601ADF80A3039
:10540000ADF80C30ADF80E30ADF81020ADF814301A
:10541000ADF81630ADF8124012F0F2FA06B010BD39
:105420000030014070B5032292B0002101202AF023
:10543000BFFC414B03221860002101202AF0B8FC78
:105440003E4B186001202AF0C6FD3D4B012118603B
:105450004FF4805012F038FA0121084612F010FA89
:1054600001214FF4800012F00BFA05221146354855
:1054700012F05FF833480522062112F05AF831483D
:105480000522072112F055F82F4B2E48202201A9A2
:10549000CDE9012311F0F6FF802301A929480193EA
:1054A000402611F0EFFF01A92648019611F0EAFF0E
:1054B0004FF4806300240993244B04934FF0C0659C
:1054C0004FF40033214622480D93CDE90E44109449
:1054D0000B940C9411940A940894079405940395E2
:1054E000069611F0E5FE03A9194811F0B7FE214612
:1054F00018480694039511F0DBFE03A9154811F036
:10550000ADFE07238DF801308DF8024044230124BD
:1055100068468DF800308DF8034012F039F93823D1
:1055200068468DF8003012F033F92820FFF754FF59
:10553000094B1C7012B070BDA01B0020901B0020F6
:10554000981B002000000240020200020C300140C3
:105550008864024010640240491B0020F8B501F144
:105560007043B3F5803F06460C46174604D22B49DC
:105570002B48E22226F016FC07F17043B3F5803F7A
:1055800004D226492648E32226F00CFC254DEC6087
:10559000254C6E600122E76010212846666011F0FC
:1055A000CDFE01221021204611F0C8FE1F492846D9
:1055B00011F0ACFE1E49204611F0A8FE012128463C
:1055C00011F076FE0121204611F072FE19480122E9
:1055D000022112F040FA01221146164812F03BFA5D
:1055E0001448012112F02BFA134B4FF0FF311868C9
:1055F0002AF078FE01280ED1104B4FF0FF311868C9
:105600002AF070FE431E5C425C410A48002112F001
:1056100016FA2046F8BD0024F7E700BFF09503080E
:10562000D5D903088864024010640240400F00206E
:105630003D00801000300140A01B0020901B002086
:1056400010B5064B04464FF0FF3118682AF04AFEA9
:105650002046BDE81040FFF7BFBE00BF981B0020EA
:105660000348002300681A4619462AF0D9BB00BF38
:10567000981B002013B500242246134801941021E2
:1056800011F05CFE1149104811F0A2FE0F490E48BE
:1056900011F03CFE22460E48022112F0DCF90A48C5
:1056A000214611F005FE0B4B01A918682AF014FDE4
:1056B000019B3BB1084B4FF080521A60BFF34F8FF4
:1056C000BFF36F8F02B010BD886402400008002055
:1056D00000300140A01B002004ED00E013B50024C1
:1056E000224613480194102111F028FE1149104858
:1056F00011F06EFE0F490E4811F008FE22460E48CA
:10570000012112F0A8F90A48214611F0D1FD0B4BF6
:1057100001A918682AF0E0FC019B3BB1084B4FF04F
:1057200080521A60BFF34F8FBFF36F8F02B010BD6E
:10573000106402402000001000300140901B002047
:1057400004ED00E0064A13784BB9064B0649196090
:10575000064B5B1A06499B100B60012313707047C0
:10576000AC1B0020A41B00201C8906085C890608CD
:10577000A81B002008B5FFF7E5FF014B186808BD1E
:10578000A81B002070B50D460446FFF7DBFF094B50
:105790001A68094B196800239A4201DC002070BD89
:1057A00051F823000678A64202D14678AE42F6D0E0
:1057B0000133F1E7A81B0020A41B00202DE9F041D4
:1057C0000646FFF7BFFF0B4B1F680B4BD3F800805B
:1057D0000024A74203DC00252846BDE8F08158F8E4
:1057E000245030466968FFF7A1FC0028F4D001344A
:1057F000EFE700BFA81B0020A41B002030B5034624
:1058000044680020844202DC4FF0FF3030BD1A684B
:10581000155C8D42FAD00244527802321044F1E70E
:10582000014B1868704700BFB01B0020044B1B6879
:105830008342C3BF034B7C2202FB00300020704731
:10584000B01B00200000001008B5FFF7D7FFC043D1
:10585000C00F08BDF8B5044617461D46FFF7CEFF3A
:10586000061E10DB21688B196C1E5A789442A8BF63
:105870001446023622463144384632F0BBFA002341
:105880003B552046F8BD00233B704FF0FF34F8E74E
:1058900030B51F4C8BB02368CDF80A30A388ADF823
:1058A0000E300546A3798DF81030002117220DF136
:1058B000110032F0ADFA54F81E0F0090A388ADF835
:1058C000043005F17004002301212046CDF8063094
:1058D000FFF7BAFF30B11E230DF10A020121204665
:1058E000FFF7B8FF02212046FFF7AEFF28B10A23D9
:1058F0006A4602212046FFF7ADFFAA6F054B9A4288
:1059000003D10549054826F0DDFE0BB030BD00BFD0
:1059100060900308109A03083E96030891C301089B
:105920002DE9F04FA54B8BB01D7800AF7B60002DAB
:1059300040F086807D720CF093F907F109000CF0BD
:10594000D5F9064610B39E4CDFF8BCA2DFF87C9276
:10595000DFF8B8B2A8467B7A98451DDA2346702254
:1059600000215FFA88F00CF007FA002800F0B280FE
:105970002378EB2B68D09349484626F0A3FE424695
:105980005946484626F09EFE002697E08E498F48ED
:1059900026F098FE7E7201268D4CD4F8008098F88F
:1059A00000304BB38B490422404632F09DFA18B3C5
:1059B000424689498548DFF858A2DFF81082DFF8AF
:1059C00000B226F07FFE216839603A2308467B81C9
:1059D000FFF7B6FB083020F00700E946ADEB000DFD
:1059E0003968684632F078FA07F10A01684632F001
:1059F000A1FA002877D1CD46784C0EB17B7A23608E
:105A00006F4E724A4FF00008B146C346C2460121AC
:105A100020688045C0F28E8001B92160DFF8F491E2
:105A2000DFF8F4B1DFF8A4A14FF00008236898452F
:105A3000C0F2A8800DB1002323607A68012313709F
:105A40002C37BD46BDE8F08F0721204626F05FFCCD
:105A5000E379C0B2834201D061498DE7237A0BB16B
:105A6000604989E7617A04F10800023126F04FFCB1
:105A7000534A617A7C2303FB08230B44C2B29B7A0E
:105A80009A4204D05849484626F01CFE77E704F1B4
:105A90000A03C4E91C3107F10A021E23012104F1A3
:105AA0007000FFF7D7FE607960B1A179FFF76AFE59
:105AB00000B94E48A0672046FFF7EAFE08F101084A
:105AC0007C3448E7BB7A002BF3D007F10A00FFF7DC
:105AD00075FEEDE7386042465146484626F0F2FD35
:105AE0003B681E46EAE72060FFF768FE50B922686F
:105AF0003F49404626F0E6FD07F10A01002032F05A
:105B000019FA76E7C36913B9036A002BF4D07B7ADC
:105B1000042B0AD80133DBB27C227B72013B02FBEF
:105B200003B3344922689867E3E75146404626F0BC
:105B3000C9FDE1E7D9F8780080681AEA000008D0CA
:105B40002D4B184205D02D49104626F0BBFD1F4AAB
:105B50000021D9F87800C0681BEA000F05D0284959
:105B6000104626F0AFFD194A0021D9F87830986820
:105B70004AEA000AD86808F101084BEA000B09F16B
:105B80007C0945E7BDB9B36F1B7C23B199F80020B0
:105B90005AB989F800301B4AB36F11785B7C0B430C
:105BA000137008F101087C3640E79342F3D0594660
:105BB000504626F087FD0125EDE700BFB41B00200D
:105BC00000000010BF9603086D96030891C30108FA
:105BD000000000200D98030812980308B01B002055
:105BE000E99603081897030848970308109A0308D2
:105BF0003998030876980308F3E3FFFFE298030857
:105C00005B990308B61B0020C59703087B97030820
:105C1000A6980308B51B0020D2990308014B1878F9
:105C2000704700BFB51B0020014B1878704700BFBC
:105C3000B61B00204FF0A040704700004FF48830A2
:105C400070470000014B1868704700BF342A0020DD
:105C500041F6FF7070474FF48050704741F2F400F6
:105C60007047032970B50446154603D8036903B18C
:105C70005A5470BD0429FCD1EA0702D5036A03B166
:105C80009847AB07F5D5636A002BF2D0BDE87040AA
:105C9000184700002DE9F04704460F469046FFF7ED
:105CA000BFFDB4F1805F054620D2002619E0B4F5AF
:105CB000805F14D3A4F58059B5EB991F4FEA991072
:105CC0000DDDFFF7B3FD836F18F8062019F0200FE4
:105CD0000CBF5869986909F01F01FFF7C2FF013630
:105CE0000134BE42E3D30120BDE8F087230F013B1E
:105CF0004500B5EB530F4FEA530601DC0020F3E7F4
:105D0000304603F00105FFF791FD826F536905B13D
:105D10009369002BF2D0D3F800E0BEF1000FEDD074
:105D2000701C284442463946A4EB0070F446BDE896
:105D3000F047604703461046CA18B2F5005F03D229
:105D40000A4699B205F0DAB90020704710B4541829
:105D5000702C04D85DF8044B89B20CF071B80020A7
:105D60005DF8044B7047000017F036BBB0F5805F5C
:105D7000F8B50D4611461BD2B0F5806F35D255FAF5
:105D800080F3342BC2B230D8040A3423184863435A
:105D9000C61803F56D731344002786F8E4732A468A
:105DA000184432F027F8204621F00CFA0120F8BD03
:105DB000A0F58050B0F5806F17D255FA80F33D2BD7
:105DC000C2B212D8040A3D2309486343C61803F53A
:105DD00030731344002786F8FC722A46184432F0C8
:105DE00009F8E0B221F0B6FAE0E70020DFE700BFF3
:105DF000A85501202DE9F3411E46836804469046CC
:105E00000F46984710F0010F0CBF012503258207AC
:105E100048BF45F020054307636848BF45F040058B
:105E20000BB145F0040523680BB145F00805237B51
:105E30000BB145F010053570236A626A003B18BF4C
:105E400001230AB143F0020373706369C6F802309C
:105E5000A369C6F80630C6F80A801122394606F151
:105E60000E0032F053F8E369A3B13846FFF768F942
:105E700033183A229A73E169019105460846FFF703
:105E80005FF90F3501990246701902B0BDE8F04183
:105E900031F0B0BF02B0BDE8F08100002DE9F04F55
:105EA0002DED028B83B000AF06460C469046FFF7FF
:105EB000B7FCB6F1805F78605ED222460021404692
:105EC00031F0A6FF002E54D134B901200C37BD4665
:105ED000BDEC028BBDE8F08F0323013C88F8003055
:105EE000E4B24FF00109002CEFD06B4608EE103AF7
:105EF0007A6806EB09033B60013BB2EB931F4FEA64
:105F00009315E2DD90B02846FFF790FC8246002111
:105F10004022684631F07CFFDAF878104869EB4699
:105F200028B16A1C49686B461207FFF763FFDAF86D
:105F30007810886930B1AA1C49680BF12003120758
:105F4000FFF758FF3B68A9010131591AC1F1400A16
:105F5000A245A8BFA24608EB09005246594431F0B9
:105F600049FF18EE103AA4EB0A04E4B2D1449D466E
:105F7000B9E74FF00009B6E77A68330F013B5000EC
:105F8000B0EB530F4FEA530901DC00209EE748466F
:105F900003F00105FFF74AFC826F536905B193696D
:105FA000002BF2D05B68002BEFD009F101002844F0
:105FB00042462146A6EB0070984787E7F0B5B0F55A
:105FC000805F85B004460E46154619D24FF48071A5
:105FD0002A4802F0BFFB2949013C0023B34202DBFF
:105FE000012005B0F0BD671C06D0A04206DD625C52
:105FF000EA543C460133F1E70246F9E70022F7E7AD
:10600000A0F58053B3F5805F18D24FF480711B4820
:1060100002F0C2FBA4F580541849013C0023B342AE
:10602000DEDA621C06D0A04206DD625CEA5401346E
:106030000133F4E70246F9E70022F7E710F0FF0129
:10604000A0F5005716D10D2E16D11022684631F05A
:10605000DFFE6946C7F3072002F05AFB019B2B6065
:10606000029B6B60039BAB60009B003B18BF01234E
:106070002B73B5E70020B4E70846B2E77021002093
:1060800010B4084C0B46246811461A18A24204D8D2
:106090005DF8044B1A4604F0E7BC00205DF8044BA1
:1060A000704700BF342A002003461046CA18B2F5D4
:1060B000005F03D20A4699B205F008B80020704785
:1060C00010B45418702C04D85DF8044B89B20BF04E
:1060D00053BE00205DF8044B7047000017F08EB9E6
:1060E0000346B3F5805F10B5104612D2B3F5806F4A
:1060F00020D251FA83F4342CDAB21BD81B0A342490
:1061000004FB03230A460C49194431F073FE0120B5
:1061100010BDA3F58053B3F5806F0BD251FA83F411
:106120003D2CDAB206D81B0A3D2404FB03230A46A1
:106130000249E9E70020EBE75C590120685801209B
:10614000014819F0FFBA00BF349A03082DE9F8435B
:10615000FFF710FBFFF7E4FBFFF7F2FFFFF760FB31
:106160001449DFF85880144FDFF854900246064671
:10617000114826F0A7FA0024B44201DBBDE8F883F9
:106180002046FFF753FB836FDA69054652B15A6820
:1061900052B123464946384626F094FAAB6F28465A
:1061A000DB6998470134E7E722464146384626F046
:1061B00089FAF3E76C9A030891C30108BB9A0308B4
:1061C000899A03082DE9F047FFF72AFBDFF844908E
:1061D000DFF84480DFF844A0064600240127B442DB
:1061E00002DB3846BDE8F0872046FFF71FFB836FD0
:1061F0001B6A3BB198472246054628B151464046A6
:1062000026F060FA0134EAE74946404626F05AFA99
:106210002F46F7E7FF9A030891C30108E09A0308A5
:1062200070B5134D134E034604462A4603CAB242C4
:1062300020606160154604F10804F6D10E4D0F4E42
:1062400003F128042A4603CAB24220606160154661
:1062500004F10804F6D10A4C0A4D5033224603CA11
:10626000AA4218605960144603F10803F6D170BDC4
:1062700000000240280002400004024028040240BE
:10628000000802402808024070B5114D024603463E
:1062900000F12806186859682C4603C40833B34235
:1062A0002546F7D10B4D02F15006186859682C4667
:1062B00003C40833B3422546F7D1074D7832186836
:1062C00059682C4603C4083393422546F7D170BD64
:1062D0000000024000040240000802402DE9F8439B
:1062E0000F4CDFF84080DFF840900546012700267C
:1062F00034F8021C54F8060C11F00CF9854206D053
:106300002B4622464146484626F0DCF90027013656
:106310000B2E04F10C04EBD13846BDE8F88300BF26
:106320000A000020209B030891C301082DE9F041D9
:10633000A2B00EF0BBF801210446072011F0A0FA2C
:1063400004A8384DFFF76CFF00262F46B046BB88E7
:1063500057F80C0B02A90136CDE9023811F092F87A
:106360000B2EF4D100264FF0010837467CB3AB88E2
:106370002868029302A9ADF80C808DF80E7011F018
:1063800081F8A988286811F0CBF80197019BB3F533
:106390007A7F3EDB0120FFF7A1FFA9880446286829
:1063A00011F0C0F80197019BB3F57A7F35DB00202F
:1063B000FFF794FF0136002802A955F80C0B8DF861
:1063C0000C7008BF002411F05DF80B2ECED104A88C
:1063D000FFF75AFFCCB101231348ADF80C308026EB
:1063E000002302A98DF80E304025029611F04AF8DC
:1063F0000D48029502A911F045F80B48314611F0FD
:1064000091F80948294611F08DF8204622B0BDE8E0
:10641000F081019B01330193B8E7019B01330193A4
:10642000C1E700BF04000020000402402DE9F04F46
:10643000A5B00EF03BF801210446072011F020FA28
:1064400006A8DFF8C081FFF7EBFE002546462F4681
:10645000B38856F80C0B04A90135CDE9043711F0C7
:1064600011F80B2DF4D10026664D4FF0010B374685
:10647000002C51D0AB882868049304A9ADF814B05F
:106480008DF8167010F0FEFFA988286811F048F802
:106490000397039BB3F57A7F5CDB4346A1464FF03D
:1064A000000A18460121019300F05AF90AF1010A85
:1064B0000028019B08BF4FF00009BAF10B0F03F150
:1064C0000C03EED1A988286811F02CF80397039BE0
:1064D000B3F57A7F42DB43464FF0000A18460021AD
:1064E000019300F03DF90AF1010A0028019B08BF61
:1064F0000024BAF10B0F03F10C03EFD1002C55F877
:106500000C0B8DF8147004A906F1010618BF4C4657
:1065100010F0B8FF0B2EABD13B4D00262F46B046F6
:10652000BB8857F80C0B04A90136CDE9043810F0EC
:10653000A9FF082EF4D1CDF80C8042F20F72039B14
:1065400093420FDD00260C2784B90024204625B095
:10655000BDE8F08F039B013303939AE7039B01335C
:106560000393B4E7039B01330393E8E707FB06506B
:10657000012100F0F5F80136042E0446E4D101278C
:106580004FF0000842F20F79002CDED0AB8E286B62
:1065900004A9CDE9043710F075FFA98E286B10F01F
:1065A000BFFFCDF80C80039B4B4526DD284600211C
:1065B00000F0D6F80136082E044605F10C05E3D1AB
:1065C0000028C2D001238026ADF8143004A900238E
:1065D0000E488DF816304025049610F053FF04A99C
:1065E0000A48049510F04EFF3146084810F09AFF13
:1065F0000648294610F096FFA8E7039B0133039352
:10660000D1E700BF880000204801002000040240BC
:106610002DE9F8430F4CDFF84080DFF84090054645
:106620000127002634F8021C54F8060C10F072FF03
:10663000854206D02B4622464146484626F042F87F
:1066400000270136052E04F10C04EBD13846BDE8D5
:10665000F88300BF12010020209B030891C30108AA
:106660002DE9F041A2B00DF021FF012104460720E1
:1066700011F006F904A8384DFFF7D2FD00262F4689
:10668000B046BB8857F80C0B02A90136CDE9023899
:1066900010F0F8FE052EF4D100264FF00108374621
:1066A0007CB3AB882868029302A9ADF80C808DF802
:1066B0000E7010F0E7FEA988286810F031FF0197EE
:1066C000019BB3F57A7F3EDB0120FFF7A1FFA9888C
:1066D0000446286810F026FF0197019BB3F57A7FE6
:1066E00035DB0020FFF794FF0136002802A955F89A
:1066F0000C0B8DF80C7008BF002410F0C3FE052EA3
:10670000CED104A8FFF7C0FDCCB101231348ADF8EA
:106710000C308026002302A98DF80E304025029609
:1067200010F0B0FE0D48029502A910F0ABFE0B4828
:10673000314610F0F7FE0948294610F0F3FE2046D6
:1067400022B0BDE8F081019B01330193B8E7019BC2
:1067500001330193C1E700BF0C0100200004024097
:1067600038B50D4604468188006810F0D3FE854296
:1067700007D0054905482B46A21D25F0A3FF0020A0
:1067800038BD0120FCE700BF2CB5030891C3010808
:106790002DE9F3411DF084FA2A4E2B4D2B4F307812
:1067A000002849D02A4B2B4C042200219E4613F886
:1067B000018B14F801CBE0451CBF03F801CC014666
:1067C000013AF4D131B12448CDF800E004232E2160
:1067D00005F0FEF93B78012B2ED9204B204C1B787D
:1067E00022789A420DD0237001231A461A48009449
:1067F0002E2105F0EDF91B4B22781B481A7017F07B
:10680000DDFC2B7823B94FF47A702AF04DFCC6E7F3
:10681000DFF85C802AF0E2FAD8F8003098420446AB
:106820000AD9124B00930C48012302222E21643412
:1068300005F068F9C8F800402B78002BE3D00A2057
:10684000E3E700BFBC1B0020B91B0020B81B0020E1
:10685000A9010020AE01002054050020AD01002058
:10686000A8010020BA1B00205C890608B71B002085
:10687000C01B002010B5104B1878A0B10F4910486C
:10688000104CFEF753FC78B90123237022780E4C8C
:10689000002A14BF01220022227003D10B490C48A8
:1068A00025F010FF207810BD04490A48FEF73EFC91
:1068B0000028EBD10223E8E74A1B0020C41B00207C
:1068C00070B50308B81B0020BC1B002088B5030866
:1068D00091C301087CB5030873B5124E3478F4B93E
:1068E000114D124912480194032300939622234626
:1068F0002AF0F6F80D222146284631F089FA0C23B9
:1069000010222E210B48009505F0FCF80A4B0B498C
:1069100018702A460A4825F0D5FE0123337002B0CC
:1069200070BD00BF4A1B0020C41B0020ADB503088A
:106930009167000854050020BB1B0020BFB5030869
:1069400091C30108034B1878034B1B780BB140F03F
:10695000040070474B1B0020401C0020044B18789B
:10696000044B1B78022B08BF40F00400704700BFA7
:106970004B1B0020D81B00200120704738B50A4C63
:10698000012210460221234625F066F80125102336
:1069900020462372E58024F0D9FC64202AF084FB91
:1069A000024B1D7038BD00BF421C0020401C00205F
:1069B000F8B5194F01253D7024F04EFF4FF4E1303A
:1069C00007F0E4FC154B1C7829462046FEF7B4FC82
:1069D00000212046FEF7E2FC114B1E782946304686
:1069E000FEF7AAFC00213046FEF7D8FC0A202AF068
:1069F0005BFB29462046FEF7D1FC02212046FEF72C
:106A00009BFC64202AF050FB00213046FEF794FCEA
:106A100002233B70F8BD00BFD81B00204F95030830
:106A20004C95030870B5194D2E786EBB184B01219B
:106A30001878FEF781FC174B01211878FEF77CFCD3
:106A400028F090FC144B1860144B1C780121204650
:106A5000FEF772FC31462046FEF7A0FC24F0AEFEA5
:106A600024F0DEFC24F020FC25F014F8012120465F
:106A7000FEF794FC02212046FEF75EFC0849094817
:106A800025F020FE01232B7070BD00BF4B1B0020A2
:106A90004D9503084E950308D41B00204F9503081D
:106AA00008B6030891C3010838B50B4D0B490446DD
:106AB000024605F1080031F09DF941F2883128467F
:106AC000EC8024F057FC30B9BDE838400449054853
:106AD000882225F067B938BD421C0020D91B002050
:106AE00025B6030879B603082DE9F341404C1E464C
:106AF000054623468846174604210F22012024F02C
:106B0000ABFF33691E68D5B9022323720423E372F5
:106B100041F28831092320466572A5722573C4F8B5
:106B20000D60E38024F026FC20B9324932488122EE
:106B300025F038F931493248402225F0D0FD304D5A
:106B400042463946284625F0D4FDEB689E4204D2E1
:106B500028492C48AF2225F025F9294F384625F041
:106B6000D0FD00283FD1264825F0EEFDEB699E427E
:106B700035D1234825F0EDFD08B1FFF795FFEA6810
:106B8000EB699A4204D01B491F48BB2225F00AF941
:106B9000002304226372A37223731548227209230F
:106BA00041F28831E272C4F80D60E38024F0E2FB28
:106BB00020B910491048922225F0F4F841F28833A8
:106BC00012480093012200230068114628F0D8FBE8
:106BD000C30704D407490E489C2225F0E3F801209E
:106BE00002B0BDE8F0814020FFF75EFFB6E700BFCE
:106BF000421C002025B6030879B60308D91B0020E3
:106C00001C1C002081B60308AEB60308D41B00206C
:106C1000FAB60308024B0121186828F05FBC00BFD8
:106C2000D41B0020002007F01FB810B504468020B8
:106C300007F01AF8A0B2BDE8104007F025B8000030
:106C400010B5054C237833B906F0A2FF03480AF0CB
:106C5000B5FD0123237010BD4C1B0020B4010020A2
:106C60002DE9F04F2DED048B8DB01DF019F80EF0CD
:106C70003DFB3F4EDFF8208105460F460A202AF0F3
:106C800013FA3C4B3A49187807F05AFAB6F904302F
:106C90005B421BB2002B08EE103AB8BF5B429BB2BE
:106CA000632B5FD8B6F90240644223B2002B09EE91
:106CB000103AB8BF5B429BB2632B53D82E4B1A7865
:106CC0002E4B002A4AD07289DFED2D6ADFED2D7A36
:106CD00007EE102AB8EE477AE7EE267AB0EE677A2A
:106CE000DFED297AB4EEE77AF1EE10FA58BFF0EE54
:106CF000477AC3ED007AD3ED008A0EF0F7FA8246A8
:106D000089460EF0F3FA8B4620490978044611BBF8
:106D10003178B0291FD1F8EEC97A0621BAEB050007
:106D2000B8EEC88A8DF8001069EB0701CDED037A43
:106D30008DED028ACDED048ACDED058AFDF7B6FF13
:106D40009FED137A07EE900AC7EE877A6846CDED7D
:106D5000067A24F0E3F825465F468FE70D4A12686D
:106D60001A60C8E798F80030013388F8003085E7EA
:106D7000F05B01204E950308461D0020C001002055
:106D8000B84B513AB6F3DD3ECDCCCC3D471D00208B
:106D900000247449BC010020451D002010B5084B9B
:106DA0001C7834B10748FEF709FDBDE81040036ABE
:106DB00018470549054825F085FC204610BD00BF51
:106DC000441D0020D69F0308A0B7030891C3010803
:106DD00037B50F4D2B78CBB90E4B1C78B4B90E4894
:106DE000FEF7ECFCC369204698470C4B187806F078
:106DF000BDFF58B10323009309490A480194234673
:106E00004FF4967229F06CFE01232B7003B030BD55
:106E1000431D0020441D0020CC9F03084E9503080D
:106E2000CDB70308616C000837B50F4B1B78CBB9A1
:106E30000E4D2C78B4B90E48FEF7C0FCC36920464D
:106E400098470C4B187806F091FF58B10323009334
:106E500009490A48019423464FF4967229F040FEEE
:106E600001232B7003B030BD431D0020441D0020C2
:106E7000D69F03084E950308CDB70308616C000840
:106E800010B5084B1C7834B10748FEF797FCBDE8F5
:106E90001040036A18470549054825F013FC2046B1
:106EA00010BD00BF431D0020CC9F0308A0B70308FE
:106EB00091C30108182070472C20704770B571B13C
:106EC000124A034600F1240114781C7054785C7057
:106ED00094789C7003338B4202F10302F4D104785E
:106EE00041788278034600F12105DE781E701E7914
:106EF0005E705E799E700333AB42F6D180F821401C
:106F000080F8221080F8232070BD00BFCCB80308A1
:106F100030B5214B09B100221A6093ED007A1F4D64
:106F20001F4C2049F7EE007AB4EEE77AF1EE10FA42
:106F300044BFDFED1D7A77EE277A00F12402C3ED1E
:106F4000007A2B7807EE103AB8EEC77A033027EEB6
:106F5000277ABCEEC77A17EE103A00F8033C237884
:106F600007EE103AB8EEC77A27EE277ABCEEC77A5A
:106F700017EE103A00F8023C0B7807EE103AB8EE24
:106F8000C77A27EE277ABCEEC77A17EE103A00F8D8
:106F9000013C8242D5D130BD701D00204602002048
:106FA0004502002044020020CDCC4C3DF0B500F15C
:106FB000240439B1034600221A705A709A700333C0
:106FC0009C42F9D1104940F20F2540F203160B788C
:106FD0004A78DF08DB0003F0380343EA521302F07B
:106FE0001F026F4373436A43173721331732BF11B0
:106FF0009B1192110770437082700330844201F13B
:107000000201E4D1F0BD00BFB31D00207FB51B4BD2
:107010001A681B798DF80A30194BCDF8062000212B
:107020001A681B79CDF80B208DF80F300DF1060290
:10703000FF260D4612F8013B03EB4303C418013150
:107040000529C6546570A570F4D100250DF10B011A
:107050002B46FF2411F8012B02EB42028618013562
:10706000052D83547470B370F4D10470447084702F
:107070008374C374037504B070BD00BF1CB80308EB
:1070800022B8030870B571B1124A034600F1240119
:1070900014781C7054785C7094789C7003338B4225
:1070A00002F10302F4D1047841788278034600F1BA
:1070B0002105DE781E701E795E705E799E70033346
:1070C000AB42F6D180F8214080F8221080F82320CE
:1070D00070BD00BF56B8030870B599B10C221649AF
:1070E0001546B2FBF5F305FB132303EB43030E78C0
:1070F000C654C4184B7863708B78A370013A01F1C1
:107100000301EED190F8214090F8221090F823204E
:107110000346A0F121059E7F83F82160DE7F83F87E
:10712000226093F8206083F82360033BAB42F2D1E6
:1071300004704170827070BD32B8030837B50446E0
:1071400011B1174B00221A6016480191FFF7B6FEE5
:1071500001991548FFF7C0FF1249134A204624340D
:1071600013780D785B0803EB5503037053784D7863
:107170005B0803EB5503437093788D785B0803EB52
:10718000550383700330A04201F1030102F10302B1
:10719000E6D1034A13680133136003B030BD00BF6A
:1071A0001C1E0020201E0020441E002030B500F1CF
:1071B000240439B1034600221A705A709A700333BE
:1071C000A342F9D10D4A1368092B4FF000010EDCE0
:1071D000DD070CD5FF250170417085700330A0429A
:1071E000F9D10133132BC8BF0023136030BD0170E8
:1071F0004170817003308442F9D1F2E7781E00209B
:107200000D4B0E481988B0F90020114489B2B1F530
:107210007A6F198007D9524202804FF47A621A803D
:1072200018880AF0C3BAB1F5FA6FF9D25242028057
:107230004FF4FA62F3E700BF300C0020320C00205C
:107240002DE9F043674B684D1B682A68674C684915
:10725000684E9342684A4FD0DFF8A48194ED007ADB
:10726000D8ED007ADFF89CE191ED006ADFF898C173
:10727000624FDFF89C912B60C7EE276AD9F8009027
:10728000C8F80090C3F30748C4F80090F7EE007AFE
:1072900077EEE67A9EED007A27EE877AA6EE267ADA
:1072A00092ED006A81ED007A9CED007A27EE877AF4
:1072B000A6EE267A82ED007A97ED007A67EE877A5D
:1072C00096ED007AE7EE267AC6ED007A07EE908A10
:1072D000F8EEE77ACEED007AC3F3072E07EE90EAD8
:1072E000F8EEE77ACCED007A5FFA83FC07EE90CAFD
:1072F000F8EEE77AC7ED007AD4ED007AF5EEC07AC1
:10730000F1EE10FA00F124053FDD3D4B91ED006AEE
:1073100093ED007A3B4BC7EE876AF7EE007A77EE83
:10732000E67A93ED007A384B27EE877AA6EE267A36
:1073300092ED006ABDEEC77A17EE101A93ED007A4F
:107340002E4B27EE877AA6EE267ABDEEC77A17EE89
:10735000102A93ED007A67EE877A96ED007AE7EED1
:10736000267AFDEEE77A17EE903A0170427083704C
:1073700003308542F9D1D4ED007A9FED247A77EE7F
:10738000C77AC4ED007ABDE8F08300272760C3F315
:10739000074406EE904AF8EEE66AC1ED006AC3F3D0
:1073A0000721DBB207EE101A07EE903AB8EEC77A63
:1073B000F8EEE77A82ED007AFCEEE66ABCEEC77A78
:1073C000C6ED007AFCEEE77A16EE901A17EE102A58
:1073D00017EE903A0170427083700330A842F9D1E1
:1073E000D1E700BFA41D002040020020CC010020F6
:1073F000D4010020C8010020D0010020681E002018
:10740000C4010020701E00206C1E0020CDCC4C3D1D
:107410002C02002037B5044626F0D9FB07EE900A6F
:10742000DFED1D6A9FED1D6AB8EEE77ADFED1C7A8D
:10743000E7EE267A204600252434FCEEE76ACDEDFF
:10744000016ADFED186A9DF80420E7EE066ABCEEDB
:10745000E67A17EE103A9FED147AF4EEC76AF1EE71
:1074600010FAC8BF4FF0FF33DBB2F4EEC77AF1EE8B
:1074700010FA0EDCF5EEC07AF1EE10FA4CBF0021E6
:1074800011460170437085700330A042EDD103B006
:1074900030BDFF21F5E700BFC9C8C8BEC9C8C83E96
:1074A0000000C8420000000000007F43F8B5224EF3
:1074B000224F33680133054609D12149214817F08D
:1074C000B1FC21493060214817F0ACFC386029F04C
:1074D00085FC0446308818F0EDF8241AA4B21E2C5E
:1074E000388828BF1E2418F065F840B2184B194997
:1074F000032808BF012204EB4406A4EB840408BF60
:107500001A7064340A681F782846F6B2E4B224354B
:1075100000236FB1092A0BDC0370437083700330C2
:107520008542F6D10132132AD8BF13460B60F8BD4D
:1075300006704470F2E700BF380200203C020020D1
:107540003AA3030844A303087AB4030846A0030837
:10755000481D00207C1E002073B5204904462048A9
:1075600017F060FC18F0A6F81E4905461C4817F0F5
:1075700059FC18F077F8DFED1C7A9FED1C7A30EE9D
:10758000670ADFED1B7AE0EE077A9FED1A7AF4EED8
:10759000C77AF1EE10FA19DCF5EEC07AF1EE10FAC6
:1075A00016D4FCEEE77ACDED017A9DF8042023464F
:1075B00004F124006421D44300265DB11C705A708C
:1075C0009E7003339842F8D102B070BDFF22EEE7FF
:1075D0000022ECE7197059709970F2E78FA0030848
:1075E000B0A003088AA003080000AA423333A3C056
:1075F0000000000000007F43F7B5314904463148E0
:1076000017F010FC18F02EF82F4A30499FED307A11
:10761000DFED305A9FED305A2046154624340E4691
:10762000B0EE476A0027D2ED007AD1ED006A76EE1F
:10763000E76A70EE677AC5EEA64AF0EE476AE4EEB6
:10764000A76AF4EEC76AF1EE10FA30DCF5EEC06A14
:10765000F1EE10FA2DD4FCEEE67ACDED017A9DF82C
:10766000043003704770D5ED007AD6ED006A76EEEF
:10767000E76A70EE677AC6EE264AF0EE456AE4EEF7
:10768000A76AF4EEC66AF1EE10FA14DCF5EEC06AF1
:10769000F1EE10FA11D4FCEEE67ACDED017A9DF808
:1076A0000430837003308442BDD103B0F0BDFF23AA
:1076B000D7E70023D5E7FF23F3E70023F1E700BF77
:1076C00049A0030846A00308280200203002002039
:1076D00000007F4300007FC300000000F8B5424E69
:1076E000424D434F0446306800280FDA4149424872
:1076F00017F098FB414930603F4817F093FB404931
:1077000028603D4817F08EFB3860F8BD80B217F056
:10771000A9FFFDEEC07A288817EE906A17F0A2FF45
:10772000FDEEC07A388817EE905A17F09BFF354B64
:107730009E423246B8BF1A46B2F5007FFDEEC07ACF
:10774000A8BF4FF400729D4217EE900A2946B8BFB9
:107750001946B1F5007FA8BF4FF400718342B8BF4E
:107760000346B3F5007FA8BF4FF40073002EACBFF3
:1077700001264FF0FF36002D02FB06F2ACBF0125BB
:107780004FF0FF35002801FB05F1ACBF01204FF0A1
:10779000FF30092A03FB00F3CCBF52100022092955
:1077A000CCBF49100021092B2046CCBF5B10002321
:1077B0002434B3F5807F14BF1D46FF25B1F5807FCB
:1077C000057014BF0D46FF25B2F5807F457014BFCC
:1077D0001546FF2585700330A042EAD10A4A137886
:1077E0000133137091E700BF34020020A81D002070
:1077F000AC1D0020EBA8030812A10308F6A803089B
:10780000C4AF030800FEFFFF741D0020F8B5434F0E
:10781000434E3B78434D2DED028B04465BB9424904
:10782000424817F0FFFA42493060404817F0FAFA30
:10783000012328603B70308817F014FF2888F0EE91
:10784000408A17F00FFFB5EE400AF1EE10FAB0EEE5
:10785000408A5FD088EE880A2DF054FDDFED357A3E
:10786000B5EEC08AF1EE10FA70EE277A03D59FEDDF
:10787000327A77EE877A28EE088AF2EE086AA8EE66
:10788000A88A2046002267EEA67A9FED2C7AC7EEE2
:10789000875AB1EEC87ADFED2A7AB4EEE77AF1EED4
:1078A00010FAD4BFBDEEC77A9FED267AB8EEC77A3C
:1078B000F0EE047A87EE276AB1EE085AB1EE466A16
:1078C00007EE902AF8EEE77AF0EE474A75EEE77A8F
:1078D0000132F0EEE77AF4EEC57AF1EE10FAC8BFA5
:1078E00076EEE77A0330E6EE274AFDEEE47A17EE0D
:1078F000903AFF2BDABF23EAE373DBB2FF230C2AB3
:1079000000F8033C00F8023C00F8013CD8D1BDEC83
:10791000028BF8BDDFED0C7AADE700BFB21D002091
:10792000101E0020181E002072AF030882A6030854
:1079300068AF0308DB0FC93FDB0F4940DB0FC940CD
:1079400000007F43FF00000000000000002110B590
:107950000B481CF069FC0B4B0B481B78102163B1E2
:107960000FF0DEFD094C237833B10123237229F097
:1079700035FA00236060237010BD0FF0D3FDF1E7EE
:10798000517D0008B01D002000040240F81D0020B9
:1079900008B50B4611461A18282A06D81A46044B71
:1079A000184430F027FA012008BD0020FCE700BF92
:1079B000D01D002008B503461046CA18282A06D84C
:1079C0000A460449194430F015FA012008BD002088
:1079D000FCE700BFD01D002008B50B4611461A1861
:1079E000182A06D81A46044B184430F003FA01202E
:1079F00008BD0020FCE700BFB31D002008B503460A
:107A00001046CA18182A08D80A460549194430F001
:107A1000F1F9003818BF012008BD0020FCE700BFC5
:107A2000B31D002041B100F1240200230370437014
:107A3000837003309042F9D17047000070B5234B3A
:107A400009B100221A6093ED007A214C214DF7EE26
:107A5000007AB4EEE77AF1EE10FA44BFDFED1E7A59
:107A600077EE277AC3ED007A237803EB43016A1897
:107A70006E5C5578917800F1240206704570817033
:107A800003309042F9D1154D15482978027801311B
:107A9000C9B20132D2B204292970027009D9002179
:107AA000013329700321B3FBF1F101EB41015B1AB2
:107AB00023700C2A09D90B4A002303701378B3FAF8
:107AC00083F35B091370084A137070BD781D0020A2
:107AD000751E0020B0B80308CDCC4C3D741E0020AC
:107AE000B11D0020761E0020B01D0020F0B52DED48
:107AF000028B044683B049B1034600F12401002201
:107B00001A705A709A7003338B42F9D1694F6A4EDA
:107B10003B686A4D002B12DA69496A4817F082F90E
:107B200069493060674817F07DF968492860654801
:107B300017F078F9386003B0BDEC028BF0BD3088E7
:107B400017F090FD2888B0EE408A17F08BFDFBEE11
:107B5000047AB4EEE78AF1EE10FAB3EE047A00F19B
:107B60008D80B4EEC78AF1EE10FA00F38A80F1EE50
:107B7000486AB4EEE70AF1EE10FA00F18580B4EE3F
:107B8000C70AF1EE10FA00F38280B1EE400AF5EE7A
:107B9000C06AFFEE007AF1EE10FAB7EE007AB5EEA9
:107BA000C00AB4BFB0EE676AB0EE476AF1EE10FAF1
:107BB000B8BFB0EE677A26EE866A60EE077A66EEA8
:107BC000266A27EE800AF2EE047A36EEA76A9FED67
:107BD000407AB4EEC76AF1EE10FA5BDCB5EEC06A2B
:107BE000F1EE10FA58D4BCEEC66A8DED016A9DF82C
:107BF000043084F8213037EEC06A2370B4EEC76ACF
:107C0000F1EE10FAE37049DCB5EEC06AF1EE10FA5D
:107C100046D4BCEEC66A8DED016A9DF8043023722D
:107C200077EEE66AE372F4EEC76AF1EE10FAA37338
:107C300038DCF5EEC06AF1EE10FA35D4FCEEE66AF7
:107C4000CDED016A9DF80430E37370EE277AA374DA
:107C5000F4EEC77AF1EE10FA637527DCF5EEC07A20
:107C6000F1EE10FA24D4FCEEE77ACDED017A9DF81E
:107C70000430A376637784F820305CE7F0EE476A3F
:107C800077E7F0EE676A74E7B3EE040A7FE7BBEECE
:107C9000040A7CE7FF23ACE70023AAE7FF23BEE743
:107CA0000023BCE7FF23CFE70023CDE7FF23E0E776
:107CB0000023DEE7480200200C1E0020141E0020D6
:107CC00072AF030882A6030868AF030814AC030868
:107CD00000007F437FB5174E35784DBB08F01EF985
:107CE000154B1648ADF80E5012221A6001241023CD
:107CF00002A902938DF80C400FF0C4FB104817F056
:107D000021FD104817F01EFD0F4B34702246322122
:107D100000930E482B462AF013F9064629F05EF828
:107D200064230246009321462B4630462AF07AF916
:107D300004B070BD4D1B0020041E00200004024052
:107D4000A0B80308BCB803084D79000828B8030898
:107D500010B51B4B1B4A1B681268934205D91A4881
:107D60000C21BDE8104008F08FB9184A184C116872
:107D70001360184A184852F82320C91A18BF012165
:107D80009047237A73B129F029F8616840F2DB53F8
:107D9000401A984209D90021217261600E482422BC
:107DA00030F036F80C480C21DBE74FF49673B0FB4B
:107DB000F3F103FB1101642994BFFF210021EDE7DA
:107DC000D8010020041E0020491D0020A01D002015
:107DD000F81D0020DC0100207C1D00202DE9F04F63
:107DE0002DED028B814695B009B3A44A034600F1FC
:107DF00024010024147054709470033303F8034C6E
:107E000003F8024C03F8014C994202F10302F1D14C
:107E10009B4B00221A600DF069FA00234FF47A722E
:107E2000FCF78AFF974BC3E90001974B1C60DFF812
:107E300058B2DFF85CA2DBF800300AEB83020133B2
:107E400051680A910AEB83011AF823804D788E78E5
:107E500045EA0803334300F0A881D7790DF046FACC
:107E60004FF47A720023FCF767FFCDE90001DFEDE4
:107E7000876ACDF81CB007F00F0440F20F2E7F097F
:107E8000804BD3E900232821CDE90223C1FB8823BD
:107E9000CDE90423EB0003F03803E90843EA561365
:107EA00040F20315DDE900BC6B4306F01F02DDE97B
:107EB00004560EFB01F10EFB02F2664501F11701BB
:107EC00003F1210302F1170208BF5D45C1F38711D9
:107ED000C3F38713C2F3871272D30BAD674E8DF8CD
:107EE00025108DF826308DF8272028464FF0000CFD
:107EF00096F800E080F800E00CF1010C96F801E043
:107F000080F801E0BCF10C0F96F802E080F802E086
:107F100006F1030600F10300EAD19DF82B0064F39B
:107F2000030067F347108DF82B00C6B2C00640F17E
:107F30004181009B029A981A019B039A63EB02010C
:107F4000FCF7ACFA82464FF47A7000FB08F819206F
:107F5000B8FBF0F08B46FCF76DFA02460B46504634
:107F60005946FCF7FBFBFCF789FD16F00F0206EE05
:107F7000900AF7EE007A00F08D8037EEE67A3F4DFA
:107F80000DF1250104EB440400220BA811F8013B7C
:107F900007EE903A635DF8EEE77A06EE103A67EE88
:107FA000A67AB8EEC66A0132E7EE067A032AFCEE3C
:107FB000E77A17EE903A235404F10104E6D18EE0FB
:107FC0009DF82B5064F3030567F34715EEB215F0E7
:107FD0000F054AD1294C217001350C2D6370A27018
:107FE00004F10304F7D116F0E00F19D007EE908AE0
:107FF000F8EEE77AB3EE097A67EEA67A4FF47A7371
:1080000087EE876A5F431E4B07EE907AF8EEE77AB9
:1080100086EE277AD3ED007A77EE277AC3ED007AE1
:10802000DDE90412174BC3E90012079B079A196890
:108030004B1C13600AEB830302315A680A92DF7902
:108040001AF821800AEB810207F00F045578967820
:108050007F09B8F1000F7FF413AF002D7FF410AF4C
:10806000002E00F0A280A8460AE7044D04EB440469
:108070002846254401556B70AA70B4E7841E002081
:10808000A81E0020B01E0020801E002000007A44A0
:10809000CC1D002037EEE67A524B0DF1250403EBA0
:1080A000020CA81800211CF8013B06EE103A14F847
:1080B000013B07EE903AF8EEE77AB8EEC66A67EE53
:1080C000A67A0131E7EE067A0329FCEEE77A17EE8D
:1080D000903A00F8013BE6D10332242ADCD1424B2E
:1080E00016F0E00F93ED008A15D0009B029A981AC3
:1080F000019B039A63EB0201FCF7D8FD4FF47A73FE
:108100005F4307EE907A07EE100AF8EEE77A87EE03
:10811000277A38EE078AF2EE087A28EE278A0C20B2
:10812000FDEEC87AB7EE007A17EE905AF8EEE77ACD
:10813000002638EE678A95FBF0F337EE487A00FBAD
:1081400013553446013D01342A1992FBF0F300FB2C
:10815000132303EB4303B4FBF0F200FB12424B4446
:108160000BA902EB42070F4403F1FF3CA2EB820193
:108170000233CA19925D06EE902A17F8012B07EE1A
:10818000902AF8EEE77AF8EEE66A67EE277AE6EEEE
:10819000887AFCEEE77A17EE902A0CF8012F6345F7
:1081A000E7D10C2C06F10306CDD115B0BDEC028B46
:1081B000BDE8F08F16F00F0008D101300C282970AF
:1081C0006B70AA7005F10305F7D188E704EB44044E
:1081D00014A8044404F8241C04F8233C04F8222CBA
:1081E0007DE700BF841E0020A81E00201EF030BBCB
:1081F00073B5134E34780CBB1EF000FB03231149FA
:1082000000934FF4967223460F48019428F068FCBF
:108210000E4B01930E4B009301222346C8210D48BB
:1082200029F0BCFE054628F0D9FD234602460094FD
:108230000121284629F0F6FE0123337002B070BDFB
:108240004E1B0020F0B803081D690208B81E00206C
:10825000ED810008F3B8030808B5044B1B68022140
:108260005B689847024B186008BD00BF58020020A9
:108270006C21002008B5044B1B6801215B689847FE
:10828000024B186008BD00BF580200206C2100207E
:1082900008B5044B1B6803215B689847024B1860C4
:1082A00008BD00BF580200206C21002008B5044B17
:1082B0001B6804215B689847024B186008BD00BF2B
:1082C000580200206C21002019B9044B28221A8082
:1082D00070470129FCD1014B0822F8E7AC020020CD
:1082E00010B5044C22781AB90349044824F0EAF97D
:1082F000207810BD4F1B002020B9030891C301084E
:10830000084628F0D1BE000070B586B0FDF78AF8A7
:108310000B2102200FF0AEFB01244FF4006304A8F0
:108320000493ADF814308DF816400FF053F83F4B1E
:108330003F4E18782146FCF7FFFF3E4B1D78214643
:108340002846FCF7F9FF3C4B00211878FCF7F4FFB6
:1083500000212846FDF722F80A2028F0A5FE214634
:108360002846FDF71BF80A2028F09EFE33493448C2
:108370002AF066FA32482AF0C5FC054638B10023D7
:1083800030493148337024F09DF906B070BD2C4857
:108390002AF0C2FA00220023CDE902232848DDE9B1
:1083A00002232BF00AFC294925482BF0FEFB284923
:1083B00023482BF0FCFB274921482BF0FAFB2649E8
:1083C0001F482BF0F8FB1E482AF03DFD1C482AF000
:1083D000ABFF22491A482AF08BFF194802212AF0E4
:1083E000F5FD174809212AF0F9FD154821462AF024
:1083F00047FD42F2107112482AF0B4FB10482BF0EE
:108400005BFB174817F09EF9204627F0E4FD154B5B
:1084100015491860154B01930323009314482B460C
:108420004FF4E17228F05CFB3470AEE74C95030822
:108430004F1B002051950308509503087C02002033
:10844000401F002047B9030891C301085982000862
:108450007582000891820008AD8200088A1F040816
:10846000D0B903083C1F00206AB90308702200201D
:10847000A58500082DE9F8431E46164BDDF820902F
:108480001888154D14460F46FDF7DAF8134B93F88C
:10849000008000214046FCF781FF224639462846ED
:1084A0002FF0A8FC4A46314628192FF0A3FC0C4AAD
:1084B000294604EB0900FDF751F801214046FCF77D
:1084C0006DFFFDF7CDF8074A936801339360BDE86F
:1084D000F88300BFAC020020A82000204C950308C0
:1084E000E41F0020B00200202DE9F8431D46194B7F
:1084F000089E1888184F14468846FDF7A1F8174BB8
:1085000093F8009000214846FCF748FF4146224678
:10851000DFF8508038462FF06DFC324600213819C4
:108520002FF076FC42463946A019FDF717F832467F
:1085300008EB040128462FF05DFC01214846FCF7BA
:108540002DFFFDF78DF8064A936801339360BDE86F
:10855000F88300BFAC020020A82000204C9503083F
:1085600090020020E41F002010B5094B094CD87080
:10857000094B53F83030236008481B68984723683C
:1085800006485B6800219847054B1860012010BD24
:108590004C020020580200205C020020401F0020F6
:1085A0006C21002080B5002220210A2027F000FC49
:1085B0004C4B4D4C186000234C4EE3701BF070FB8D
:1085C0004B4F354630684FF0FF3127F08BFE94F863
:1085D0000290B9F1000F5CD128F000FC637980466D
:1085E00063B194F804A0BAF1000F31D000F57A70AD
:1085F000A0600220FFF7B8FF84F804900023DFF8A2
:10860000089128681A46194627F00AFCD9F8002074
:108610000121002029F07EF9804600284ED0DFF8A5
:10862000E490DFF8E88028684FF0FF3127F05AFE29
:1086300048462BF069FA002328681A46194627F0A5
:10864000EFFB98F80000FCF7B7FE0028EBD1B9E784
:10865000A3689842D2D9274B1B689B689847E37858
:1086600048B107EBC30324495A6884F805A023489E
:1086700024F028F8C2E70133D8B2042828BF01202B
:1086800008F57A73A360431E022BB7D8FFF76CFF7F
:10869000B4E740F20113A380E3784B45AED009F173
:1086A000FF33022BAAD84846FFF75EFF0028A5D06B
:1086B000E378134907EBC3035A68D8E728684FF0FB
:1086C000FF3127F00FFE0B4B0E481B6841465B68DD
:1086D00098474346C9F8000042462868414627F0BB
:1086E0009FFB6FE7E01F00204C0200203C1F002092
:1086F0005C020020580200206EB9030891C30108F3
:1087000090B90308401F00206C21002050950308F9
:10871000F8B50D4B1C7805460E4694B10B4F4FF043
:10872000FF31386827F0DEFD094B1B683146DB68F6
:1087300028469847002304461A463868194627F009
:108740006FFB2046F8BD00BF4F1B00203C1F0020E0
:1087500058020020F8B50D4B1C7805460E4694B122
:108760000B4F4FF0FF31386827F0BCFD094B1B68F9
:1087700031461B6928469847002304461A46386844
:10878000194627F04DFB2046F8BD00BF4F1B0020C7
:108790003C1F002058020020F8B50D4B1C78054600
:1087A0000E4694B10B4F4FF0FF31386827F09AFD19
:1087B000094B1B6831465B692846984700230446ED
:1087C0001A463868194627F02BFB2046F8BD00BF33
:1087D0004F1B00203C1F00205802002038B50546E2
:1087E0000948007878B1094CA01C627025702FF000
:1087F00001FB074800231A460068214627F010FBBA
:10880000431E5842584138BD4F1B0020A01F002076
:10881000E01F002008B5054B01460022186827F02C
:10882000B9FC431E5842584108BD00BFE01F00205C
:1088300007B50A4B00211868019101AA29F04CFAEA
:10884000019B3BB1064B4FF080521A60BFF34F8F34
:10885000BFF36F8F03B05DF804FB00BF70220020F0
:1088600004ED00E070470000014B188880B27047AB
:108870004C020020014B1880704700BF4C020020C2
:10888000014B1878704700BFEA220020014B18798D
:10889000704700BF84230020014B1878704700BF49
:1088A000EB22002013B50446019128F097FA019AB3
:1088B00003460348214602B0BDE8104026F01DB92A
:1088C0006090001013B50446019128F087FA019AD0
:1088D00003460348214602B0BDE8104026F00DB91A
:1088E0006090001070B50A4B0A4C1D6800220146CA
:1088F0001046AB6854F8046B9E42BCBF0A54431C3C
:1089000002F10102B8BFD8B2082AF2D170BD00BF8F
:108910007C040020EC2400200A460146014826F091
:10892000D7B800BF609000100A460146014826F003
:10893000CFB800BF609000100346002018540130EB
:108940000828FBD17047000037B504460D4628F0D3
:1089500045FA214602466B46054826F0A6F804462D
:1089600018B12946684626F0F3F8204603B030BD1A
:108970006090001037B504460D4628F02FFA2146C6
:1089800002466B46054826F090F8044618B1294681
:10899000684626F0DDF8204603B030BD6090001038
:1089A00010B507289FBF064B1B6803EB001058301B
:1089B0000C4697BF0FC8002084E80F00012010BDAF
:1089C0007C0400200000000038B5054628F006FAB7
:1089D0009FED0D0B0E4A014602230E4825F0DAFDED
:1089E0000D4B00241C700D4B20461C70FFF742FFFE
:1089F00042F2107128462AF0B5F828462BF05CF8B0
:108A0000074B1C7038BD00BF0000000030C12D4274
:108A1000818A000860900010E9220020E8220020EE
:108A2000EA2200200000000010B5044628F0D6F924
:108A30000F4A01239FED0C0B01460E4825F0AAFDBD
:108A40004CF2503120462AF08DF820462BF034F8B5
:108A5000094B0A4A1A60012283F8252000221A7164
:108A600010BD00BFAFF300800000000030C12D42F8
:108A7000D58A000860900010842300209A99193E3E
:108A800070B5124B8CB01B68836205460023064606
:108A90008DF800300FCD01AC0FC40FCD0FC495E899
:108AA000070084E80700684622F038FA96F820307C
:108AB00096F82120013303F00703934201BF044AD3
:108AC00002EB8303726A1A600CB070BD8004002050
:108AD000A422002030B50C4B93F825208DB08AB12C
:108AE0001B688362044600238DF800300FCC01AD73
:108AF0000FC50FCC0FC594E8070085E8070068464E
:108B000022F00CFA0DB030BD8423002000000000DC
:108B10002DE9F04F984943F28842B3B08B580133A6
:108B20008B5007462AF08BFA0DF1330102460646B8
:108B300038462AF0A2FA9DF84830222B40F00581F1
:108B40008E4B109C93F80090E4B2B9F1000F53D013
:108B5000DFF8448298F80030A34240F0F380884D5B
:108B600038462AF08AF82B7898F8012023F07F0302
:108B700043F041032B706B7803F0030363F023038E
:108B80006B7008F10201F02305F116006B752FF0F0
:108B900031F97C4B00221B68AA73EA732A746A7449
:108BA000AA7498F800206FF043014FF0FF3C297140
:108BB00029756FF0300003EBC20185F80DC0E87035
:108BC000E87453F832204B68C5F809303846C5F8C8
:108BD00005202AF0C2FA38462AF0A6FB98F80120B0
:108BE0002946163238462AF008FA384601212AF07A
:108BF0003FF938462AF0F9F80022002308A9384640
:108C0000CDE908232AF060FB072C00F2978028F0BA
:108C1000E5F80246DDE90801A31CCDE9040132A90B
:108C200001EB83030AAF53F87FBC53480B46234440
:108C3000214613F87F3C03F07F0306933B4625F063
:108C4000CEFC384625F06FFF4FF0000A80465546AF
:108C50003846E9B2884535D032AAAB1C02EB830313
:108C600053F87F2C62B132AB2B44079113F87F3C51
:108C700003F07F030093002325F0CCFF07990AA897
:108C800032AA05F1140302EB430333F87F2C93B2AD
:108C9000C3B192B2002326F015F83B4B1B785A1C47
:108CA00002F0070242450AA80CD132AA143302EBA3
:108CB000430313F87F2C13F87E3C42EA0323334A24
:108CC00022F818300135082DC3D1DDE904233946D7
:108CD000CDE9002328482E4D5A46002325F036FEC4
:108CE000069B02933846DDE90423CDE900BA25F05E
:108CF0004CFF384625F05AFF51EC100BFBF7BEFE37
:108D000005EB8405204B28604E3E002E1C7012DDC2
:108D10009DF88130F02B0ED11A4B10981B681199D9
:108D2000A3F108023833F2E90245A94208BFA04284
:108D30000ED09342F7D1174B01221A70484633B038
:108D4000BDE8F08F4FF0000956E74FF00009F5E756
:108D50009DF88230012BEED1DDF88B3001EE103A18
:108D6000DDF8873000EE903ADDF883300AA800EE97
:108D7000103A25F000FFDEE760900010E8220020A6
:108D8000EC22002078040020E92200207422002038
:108D900084220020EA220020C42200202DE9F04F86
:108DA00043F28842514CA3580133B1B0A350074657
:108DB0002AF045F90DF12B010246054638462AF006
:108DC0005CF90023002206A93846CDE906230E9E51
:108DD0002AF07AFA9DF84030302B51D19DF841307D
:108DE000DDF8428003F07F030493DDE906AB27F052
:108DF000F5FFF1B2024608AB204625F0F0FB002754
:108E00003E460DF147049DF84620F3B29A423AD807
:108E100010ABE41A0023CDE90233424608A9CDE99C
:108E200000AB324825F0ECFB153D049B0293CDE9E5
:108E3000008752465B4608A82D1B25F0A6FE002D94
:108E40001BDD30AB234413F8802CF02A15D113F826
:108E50007F3C012B11D10DF12B031C4408A8D4F841
:108E60001F3001EE103AD4F81B3000EE903AD4F8DF
:108E7000173000EE103A25F07EFE1D4B01221A71CC
:108E800031B0BDE8F08FD4F8022021784AB1637880
:108E9000059103F07F03009308A8002325F0BAFE94
:108EA000059994F90130002B1DDAB4F806900023DF
:108EB0001FFA89F252EA030012D008A8059125F0A2
:108EC00001FF08A825F02FFE0A4B05991B78834265
:108ED00006D1094B1B788B4204BF084BA3F80090C6
:108EE000083401368FE70634FBE700BF60900010BE
:108EF0008423002088C5001089C50010ACC500106F
:108F00002DE9F04F2DED088B0022B7B00023CDE9FD
:108F1000022304462AF093F8054608B9002023E00E
:108F2000DFF854A3152200210DF143002EF070FF4D
:108F30002A460DF1430120462AF09FF8DAF8006036
:108F400013991298D6E90423994208BF90425746D4
:108F50000FD020462AF0F0F820462AF0E5F9204606
:108F600029F02AFF4FF0FF3037B0BDEC088BBDE889
:108F7000F08FDFF81483149A159BC8F811109DF830
:108F80005810C8F805200229C8F80930C8F80D00A3
:108F900000F0F9800429E5D1AD4B9DF859201B78EC
:108FA0009A42BBD1AB4BDDF85A009DF85E201860A9
:108FB0001A71A94B9DF86320DFF8D0B21A710746E9
:108FC000DDF85F0018609DF868308BF80430A34B23
:108FD00004461D681998A24BCBF800000646186895
:108FE000281AFBF717FA41EC180BE01BFBF712FAF3
:108FF00041EC190B301BFBF70DFA9A4B9A4E41ECE2
:109000001A0B1868401BFBF705FA53EC1A2B41ECBE
:109010001B0B51EC180BFBF777FA53EC1B2B80461C
:10902000894651EC190BFBF76FFA02460B46404696
:109030004946FBF7B1F853EC1A2B8046894651ECB0
:10904000180BFBF7ABF853EC192BFBF7A7F853EC15
:109050001B2BFBF7A3F802460B4640464946FBF79D
:109060007DFB824D76A3D3E90023FBF777FB76A344
:10907000D3E90023FBF748FA2C78FBF7FFFC06EB5B
:1090800084074FF084083860DDF871203A62784F29
:1090900008FB047204EB4414D2F88030013303F06F
:1090A0001F03C2F8803007EB840001AA202126F0BC
:1090B00019F928786B4C00EB40106A46202107EB29
:1090C000800026F0F7F82B78DDED007A08FB0378B6
:1090D00003EB4312D8F880100A4407EB820706EB33
:1090E0008306644A96ED007A01211170DAF80020B7
:1090F00087ED007A77EEC77A92F8D810F0EEE77A2B
:1091000019B902EB0311896D01B3DDED016AB1EE0E
:10911000006A66EE866AF4EEE76AF1EE10FA15DD93
:1091200002EB03110A46C86D526E096E05900326C4
:109130008DF8203004A84FF07A538DF81060069116
:1091400007928DED097A0A9321F0E8FE4A4B1B68DD
:1091500093F8D9309BB12B788BB9DBE9000100F093
:1091600060431B1AD4E9002061EB0101434DD31881
:1091700040EB0101C5E90031414B01221A70414B1E
:1091800001221A70CAE632499DF8590009788842CE
:109190007FF4C4AE153D032D0FDD9DF85A10F02964
:1091A0000BD106F1180C0025FCE802018B4208BF28
:1091B000824231D00135082DF6D102AD032388F863
:1091C000153029469DF8593088F8163020462AF087
:1091D0007BF83B68D3E900024308510843EAC273B5
:1091E000029AD31A039A62EB0102CDE9023295E8A2
:1091F00003001A4B83E80300204629F0AEFF172234
:109200002046214929F0F9FE2046012129F030FEAF
:10921000204629F0EAFDA5E69DF85B30012BCCD174
:1092200027F0DCFD06EB05163B68B06503EB051384
:10923000179ADA65189A1A66199A5A66BDE700BF36
:109240000000000030C12D420000004A78DEB1412C
:109250005824002088240020502400204824002086
:109260009024002070240020AC24002059240020E9
:10927000F0010010EB2200207C0400207824002064
:1092800068250020A8240020AE1C002068240020AF
:1092900070B50446042934D8DFE801F02A03222AF5
:1092A0002A00FFF735FC1A4E1A4D40B100233370E7
:1092B0001948FFF7AFFA002330702B6010E020460A
:1092C00029F03AFF20462AF02FF8204629F074FDB5
:1092D0002B680133272B2B60E8DC3378002BE7D099
:1092E00027F07CFD0020FFF7C5FA4FF0FF3070BD7E
:1092F00029F022FF20462AF017F8204629F05CFDCD
:10930000EEE70649064840F2071222F04BFDE7E778
:10931000E8220020E4220020C422002020BA030812
:10932000D5D903080129F8B505461AD002D9023962
:10933000022919D827F052FD2E4E01462E4825F05D
:109340004DFB701DFFF766FAA8B9284629F0F4FE18
:10935000284629F0E9FF284629F02EFD4FF4FA703F
:10936000F8BDFFF71BFDE5E7244925484FF41872C7
:1093700022F018FDDEE7234C284629F07EFC2378F6
:10938000B27923F07F0343F041032370637803F045
:10939000030363F023036370F11DF02304F116004F
:1093A00063752EF027FD7379C4F805306FF0300037
:1093B0000022154BE0706FF04301E0744FF0FF376F
:1093C00028462171A273E27322746274A27421751B
:1093D000C4F80930677329F0C0FE284629F0A4FFBD
:1093E000B27928461632214629F007FE284629F090
:1093F000FCFCB3E784230020E0C4001079BA030822
:10940000D5D90308AC2300200000CFBC38B52F4BC2
:109410001C68D4F8DC30002B054605DA22F00EFF7C
:1094200000F00100C4F8DC00D4E90423D4F8DC1017
:10943000521843EBE173C4E90423254B0021952224
:1094400018462EF0E5FC234B0024C3E90044224BD0
:10945000C3E90044214BC3E90044214BC3E9004464
:10946000204BC3E90044204B4122C3E90044027071
:109470001E4B6FF0230242706FF03002C2701C70FE
:109480006FF043021A4B027120461C70FFF7F2F98D
:10949000184B19481C70194B202221461C702EF0C5
:1094A000B7FC2022214616482EF0B2FC202221468D
:1094B00014482EF0ADFC4FF47A71284629F052FB87
:1094C00028462AF0F9FA104B1C7038BD7C040020A5
:1094D000AE1C00209024002088240020502400206E
:1094E00048240020702400206824002058240020F4
:1094F00059240020A8240020AC2400206825002046
:10950000CC240020EC240020EB2200202DE9F04F99
:10951000BF4B1A6887B005460C4698461AB927F023
:109520005DFCC8F80000042C00F26981DFE814F04B
:10953000330005000B006E016E012846FFF7E0FCCA
:1095400007B0BDE8F08F04AC2146284629F0A0FD05
:10955000B04B1B68D3E90003420842EAC3725908C2
:10956000049B9B18059A41EB0202CDE90432AA4BF9
:109570005B7D012B07D0032B0BD0A84B187880F014
:1095800001004042DCE7A64B94E8030083E80300B7
:10959000F3E7A44BF8E7A44FA44EFFF765F93A7838
:1095A000A34B04463078002A40F0AA809B4A1278E8
:1095B000002A40F0A580DFF85CE29FED9E0ADEF80D
:1095C00000E000F1100CDEF808E053F82C10012246
:1095D000714502FA00F212B224B2B7BF01319443CE
:1095E000144343F82C1014F077FA32789249A4B25D
:1095F0008B5C01338B542046FFF73CF927F0EEFBE0
:10960000D8F8003003F57A73984200F28B80DFF8C7
:1096100048B2814CDFF8FCA15846FFF7FBF804F193
:109620000D097E4B04F10508002840F0AE8018704B
:10963000DAF80030387093F8D9305BB17F4B1B7883
:1096400073B17F49D1E9003213F1005342F10002B6
:10965000C1E9003233780133DBB2072B337001D913
:1096600000233370284629F008FB764A01236375EE
:1096700013780133DBB2A3751370DAF80030D3E945
:109680000412C9F804203278C4F80D10033203EB39
:10969000C20153F83230C4F8053028464B68C8F888
:1096A000043029F05AFD284629F03EFE17225A4977
:1096B000284629F0A2FCDAF8003093F8D920EAB164
:1096C0005E4A1278D2B1D3F8DC005D4BD3E90023B7
:1096D0000421C1FB0023CDE9042322F4FF7222F010
:1096E000010202F50072049206AA12E9030002AB1D
:1096F00083E8030028460CCB29F0CBFB012175E061
:1097000001228240144300F11002002143F822108C
:1097100003EB800393ED000A14F0DEF9A4B2327873
:10972000494965E727F05AFB434CC8F8000000217F
:109730004548DFF82881DFF828E1DFED446A8C46F0
:1097400014F8013B10F8012B1344DBB208F8013B7D
:109750008BB107EE902AB8EE677A07EE903A27EEC3
:10976000267AF8EE677A87EE276AFCEEC67ACDEDA8
:10977000017A9DF804300EF8013B0131082904F804
:1097800001CC00F801CCDBD141E7012228461A7058
:1097900029F073FAF0239BF8012063750BF10201A5
:1097A00004F116002EF026FBDAF80030D3E904129B
:1097B000C9F804209BF80020C4F80D10033203EB15
:1097C000C20153F83230C4F8053028464B68C8F857
:1097D000043029F0C2FC284629F0A6FD9BF80120A0
:1097E00021461632284629F008FC0021284629F097
:1097F0003FFB284629F0F9FA4FF0FF30A0E6144964
:10980000144840F2AD1222F0CDFAF5E7002097E6B9
:109810005C2500207C040020AE1C00208024002059
:109820009024002070240020A82400205924002027
:10983000AC2400200000C07F5A24002068250020AE
:109840007824002058240020602500200000C84211
:10985000D2BA03089C040408C01F002098240020EA
:10986000A024002030B589B0002304468DF80330D1
:109870000DF10301204610F0C1FC012027F014FC7B
:109880009DF80330002BF3D001A9204610F0B8FC5E
:10989000094B9DF81F201B881341DB0720464CBF56
:1098A000BDF81C5047F6FF7510F09FFC204610F0E5
:1098B0007EFC284609B030BDCC04002030B52DED2B
:1098C000028B83B01AF0ECF93348334C9FED338AA6
:1098D00010F08BFC304810F06AFC314810F085FC29
:1098E0002F4810F064FC2F4810F07FFC2D4810F03A
:1098F0005EFC2D4810F079FC2B4810F058FC2B48EA
:1099000010F073FC294810F052FC27F067FA04F5B8
:1099100069750190642101A827F07CFB2046FFF7C0
:10992000A1FF07EE900AB8EEE70A002080EE080AD1
:1099300018F088FB2846FFF795FF07EE900AB8EE6F
:10994000E70A012080EE080A18F07CFB1548FFF7B3
:1099500089FF07EE900AB8EEE70A042080EE080AB5
:1099600018F070FB1048FFF77DFF07EE900AB8EE85
:10997000E70A022080EE080A18F064FB0B48FFF7A4
:1099800071FF07EE900AB8EEE70A032080EE080A9E
:1099900018F058FBBEE700BF1006001000007A4424
:1099A000B4090010580D0010FC100010A014001095
:1099B00013B504462020019208F0C0FA022027F0D7
:1099C00073FB2046074906F0CBF9019A044630B1F3
:1099D0000549064822F076FE204602B010BD044933
:1099E000F7E700BF5405002029BB030891C3010815
:1099F00042BB030838B51A4D1A4C2B780BB12078AE
:109A000038BD194B194A1B78194823701021FFF7EC
:109A1000CFFF2378174A1840207002211648FFF71D
:109A2000C7FF2378154A1840207001211448FFF71A
:109A3000BFFF2378134A1840207040211248FFF7D7
:109A4000B7FF2378114A1840207004211048FFF70F
:109A5000AFFF23781840012320702B70D0E700BFA0
:109A60006A25002069250020501B0020919B0308D7
:109A700010060010979B0308B4090010E1100408B9
:109A8000580D00109C9B0308FC100010A19B0308BC
:109A9000A014001037B50E4D2C78B4B908F03CFA7C
:109AA0006FF05701202008F03FFA5721202008F0DE
:109AB00061FA01232B7003230093064906480194A1
:109AC00023464FF4967227F00BF803B030BD00BF69
:109AD000501B00205DBB0308BD98000870B53D4ECB
